:020000040000FA
:100000000C945D000C9485000C9485000C94850084
:100010000C9485000C9485000C9485000C9485004C
:100020000C9485000C9485000C9485000C9485003C
:100030000C9485000C9485000C9485000C9485002C
:100040000C9446050C9485000C9414050C94EE0455
:100050000C9485000C9485000C9485000C9485000C
:100060000C9485000C94850000000008000201003B
:100070000003040700000000000000000000000072
:10008000250028002B0000000000240027002A0083
:10009000040404040404040402020202020203032E
:1000A0000303030301020408102040800102040836
:1000B0001020010204081020900511241FBECFEF6C
:1000C000D8E0DEBFCDBF11E0A0E0B1E0E6EEF3E1A5
:1000D00002C005900D92A039B107D9F722E0A0E93E
:1000E000B1E001C01D92A235B207E1F710E0CDE505
:1000F000D0E004C02197FE010E94EB09CC35D10766
:10010000C9F70E94DA050C94F1090C94000090E004
:10011000FC01EC55FF4F249180579F4FFC018491C7
:10012000882399F090E0880F991FFC01EA57FF4F50
:10013000A591B491FC01E458FF4F859194918FB73C
:10014000F894EC91E22BEC938FBF0895AF92BF929D
:10015000CF92DF92EF92FF920F931F93CF93DF9393
:100160006C017B018B01040F151FEB015E01AE18C2
:10017000BF08C017D10759F06991D601ED91FC91E4
:100180000190F081E02DC6010995892B79F7C50111
:10019000DF91CF911F910F91FF90EF90DF90CF9063
:1001A000BF90AF900895FC01538D448D252F30E012
:1001B000842F90E0821B930B541710F0CF96089574
:1001C00001970895FC01918D828D981761F0A28DA1
:1001D000AE0FBF2FB11D5D968C91928D9F5F9F7367
:1001E000928F90E008958FEF9FEF0895FC01918D1D
:1001F000828D981731F0828DE80FF11D858D90E08A
:1002000008958FEF9FEF0895FC01918D228D892F26
:1002100090E0805C9F4F821B91098F73992708950E
:100220008DE991E00E94040121E0892B09F420E08E
:10023000822F089580E090E0892B29F00E94100120
:1002400081110C9400000895FC01A48DA80FB92F12
:10025000B11DA35ABF4F2C91848D90E001968F73EE
:100260009927848FA689B7892C93A089B1898C910D
:10027000837080648C93938D848D981306C002885C
:10028000F389E02D80818F7D80830895EF92FF9226
:100290000F931F93CF93DF93EC0181E0888F9B8DA9
:1002A0008C8D98131AC0E889F989808185FF15C063
:1002B0009FB7F894EE89FF896083E889F989808186
:1002C0008370806480839FBF81E090E0DF91CF9155
:1002D0001F910F91FF90EF900895F62E0B8D10E077
:1002E0000F5F1F4F0F731127E02E8C8D8E110CC0E6
:1002F0000FB607FCFACFE889F989808185FFF5CF31
:10030000CE010E942401F1CFEB8DEC0FFD2FF11DEA
:10031000E35AFF4FF0829FB7F8940B8FEA89FB896D
:1003200080818062CFCFCF93DF93EC01888D8823CB
:10033000B9F0AA89BB89E889F9898C9185FD03C048
:10034000808186FD0DC00FB607FCF7CF8C9185FF2D
:10035000F2CF808185FFEDCFCE010E942401E9CF4D
:10036000DF91CF91089590E0FC01E859FF4F24916F
:10037000FC01EC55FF4F3491FC01E057FF4FE49135
:10038000EE23C9F0222339F0233001F1A8F4213003
:1003900019F1223029F1F0E0EE0FFF1FE458FF4F72
:1003A000A591B4918FB7F894EC91611126C0309566
:1003B0003E233C938FBF08952730A9F02830C9F021
:1003C000243049F7809180008F7D03C080918000A8
:1003D0008F7780938000DFCF84B58F7784BDDBCFAC
:1003E00084B58F7DFBCF8091B0008F778093B00074
:1003F000D2CF8091B0008F7DF9CF3E2BDACF3FB7BF
:10040000F8948091950190919601A0919701B091F7
:10041000980126B5A89B05C02F3F19F00196A11D94
:10042000B11D3FBFBA2FA92F982F8827BC01CD013E
:10043000620F711D811D911D42E0660F771F881F9D
:10044000991F4A95D1F708958F929F92AF92BF92CC
:10045000CF92DF92EF92FF924B015C010E94FF016D
:100460006B017C010E94FF016C197D098E099F09B7
:10047000683E734081059105A8F321E0821A910836
:10048000A108B10888EEC80E83E0D81EE11CF11C5B
:1004900081149104A104B10429F7FF90EF90DF903B
:1004A000CF90BF90AF909F908F900895089590E067
:1004B00080E00895FC0101900020E9F73197AF0139
:1004C000481B590BBC018AE392E00C94A6008F9262
:1004D0009F92AF92BF920F931F93CF93DF93CDB7AD
:1004E000DEB7A1970FB6F894DEBF0FBECDBF19A23D
:1004F000423008F44AE08E010F5D1F4F842E912C8C
:10050000B12CA12CA50194010E94C909E62FB901C3
:10051000CA01EA30F4F4E05DD801EE938D01232B9B
:10052000242B252B79F790E080E0109719F0CD016E
:100530000E945A02A1960FB6F894DEBF0FBECDBF3F
:10054000DF91CF911F910F91BF90AF909F908F90AF
:100550000895E95CE1CFCF93DF938FE191E00E94B2
:100560005A02EC0182E291E00E945A028C0F9D1F18
:10057000DF91CF910895CF93DF93EC0160E08E81FE
:100580000E94B30161E08E810E94B30160E08E8120
:100590000E94B3018BE891E00197F1F7DF91CF91D1
:1005A0000895CF92DF92EF92FF920F931F93CF9314
:1005B000DF936C017C0187E0E80EF11CD0E0C0E025
:1005C000062F10E0B8010C2E02C0759567950A94AD
:1005D000E2F76170F70181917F010E94B3012196DA
:1005E000C430D10579F7C601DF91CF911F910F91EA
:1005F000FF90EF90DF90CF900C94BB02CF92DF92F0
:10060000EF92FF920F931F93CF93DF93EC01F62E9F
:10061000642F8C810E94B3018D818F3F19F060E0BF
:100620000E94B3010F2D10E08F8584FF25C06E015D
:1006300087E0C80ED11CF12CE12CB8010E2C02C0B1
:10064000759567950A94E2F76170F60181916F01E3
:100650000E94B301FFEFEF1AFF0A88E0E816F104E9
:1006600061F7CE01DF91CF911F910F91FF90EF9035
:10067000DF90CF900C94BB02B80184E0759567952C
:100680008A95E1F7CE010E94D1026F2DCE01DF9154
:10069000CF911F910F91FF90EF90DF90CF900C942E
:1006A000D10240E0682F8AE392E00C94FE0281E0E0
:1006B0000E9451038BE39FE10197F1F70895CF93D7
:1006C000DF93823029F49091490298609093490217
:1006D00080934D0210924E0280E480934F0280E19D
:1006E0008093500280E58093510280913E020E94E7
:1006F000870080913F028F3F11F00E948700809118
:1007000040020E948700CAE3D2E09E012A53324091
:100710008091490284FD0AC084E090E02196281768
:1007200039073CF48E810E948700EFCF88E090E08B
:10073000F5CF8BE39DE00197F1F760E080913E02F9
:100740000E94B30160E0809140020E94B301809159
:100750003F028F3F19F060E00E94B301809149028F
:1007600084FD34C063E08AE392E00E94D102CBE4CE
:10077000D6E4CE010197F1F763E08AE392E00E94AC
:10078000D1022197F1F763E08AE392E00E94D1025F
:1007900083E592E00197F1F762E08AE392E00E943C
:1007A000D1028091490280620E94510384E08093CB
:1007B0004A028CE00E9451030E94570382E080931A
:1007C0004B0286E0DF91CF910C94510380620E942E
:1007D00051038BE496E40197F1F78091490280621E
:1007E0000E94510383E592E00197F1F7809149025D
:1007F00080620E945103D5CF90914D02891710F06D
:100800008FEF890FE82FF0E0E65CFD4F8489806868
:100810000C94510341E00E94FE0281E090E00895B3
:100820004F925F926F927F928F929F92AF92BF9200
:10083000CF92DF92EF92FF920F931F93CF936B01B2
:100840007C01742EAC019B010E94C409882399F09D
:1008500085E291E0CF911F910F91FF90EF90DF9093
:10086000CF90BF90AF909F908F907F906F905F9050
:100870004F900C945A0246015701E894B7F82FEFB5
:100880003FEF4FE75FE7C501B4010E94C409811142
:100890000DC02FEF3FEF4FE75FE7C501B4010E94A6
:1008A000FA0718161CF489E291E0D4CF2FEF3FEF3E
:1008B0004FE75FE4C701B6010E94520918161CF405
:1008C0008DE291E0C7CF2FEF3FEF4FE75FECC7011D
:1008D000B6010E94FA0787FDF3CF20E030E0A901BE
:1008E000C701B6010E94FA0710E000E087FF0CC0C4
:1008F00041E06DE28AE392E00E94FE02F7FAF09492
:10090000F7F8F09401E010E0C0E060E070E080E013
:100910009FE37C1641F020E030E040E251E40E9489
:10092000FF07CF5FF6CFA70196010E948E074B010C
:100930005C010E9471082B013C014AE00E946702A1
:10094000080F191FCC23C9F1C301B2010E94A008EE
:100950009B01AC01C501B4010E948D074B015C01F4
:1009600041E06EE28AE392E00E94FE020F5F1F4FB9
:10097000C15018F120E030E040E251E4C501B4017B
:100980000E9457092B013C010E9471084B01B12CB8
:10099000A12C4AE0C501B4010E946702080F191F8B
:1009A000C501B4010E94A0089B01AC01C301B201C2
:1009B0000E948D074B015C01DBCFC801CF911F91D5
:1009C0000F91FF90EF90DF90CF90BF90AF909F90EE
:1009D0008F907F906F905F904F9008951F920F922D
:1009E0000FB60F9211242F933F934F935F936F9302
:1009F0007F938F939F93AF93BF93EF93FF938DE973
:100A000091E00E942401FF91EF91BF91AF919F91DE
:100A10008F917F916F915F914F913F912F910F90A7
:100A20000FBE0F901F9018951F920F920FB60F9246
:100A300011242F938F939F93EF93FF93E091AD0138
:100A4000F091AE018081E091B301F091B40182FD9B
:100A50001BC090818091B6018F5F8F732091B70189
:100A6000821741F0E091B601F0E0E356FE4F958F1A
:100A70008093B601FF91EF919F918F912F910F90ED
:100A80000FBE0F901F9018958081F4CF1F920F9288
:100A90000FB60F9211242F933F938F939F93AF9391
:100AA000BF938091910190919201A0919301B09197
:100AB00094013091900123E0230F2D3758F50196D2
:100AC000A11DB11D209390018093910190939201FB
:100AD000A0939301B0939401809195019091960118
:100AE000A0919701B09198010196A11DB11D80932D
:100AF000950190939601A0939701B0939801BF91AF
:100B0000AF919F918F913F912F910F900FBE0F90BA
:100B10001F90189526E8230F0296A11DB11DD2CF74
:100B2000EDE9F1E01382128288EE93E0A0E0B0E0FC
:100B300084839583A683B78385E091E09183808346
:100B400085EC90E09587848784EC90E09787868792
:100B500080EC90E0918B808B81EC90E0938B828B8A
:100B600082EC90E0958B848B86EC90E0978B868B63
:100B7000118E128E138E148EEAE3F2E0138212822B
:100B800087E191E0918380838CE084838FEF85837C
:100B90008BE0868385E0878384E0808783E081879C
:100BA00082E082871386148615861686178681E072
:100BB0000C945F03789484B5826084BD84B58160B1
:100BC00084BD85B5826085BD85B5816085BD809118
:100BD0006E00816080936E00109281008091810090
:100BE0008260809381008091810081608093810088
:100BF000809180008160809380008091B10084604A
:100C00008093B1008091B00081608093B0008091AA
:100C10007A00846080937A0080917A008260809369
:100C20007A0080917A00816080937A0080917A00C6
:100C3000806880937A001092C100E091AD01F0913C
:100C4000AE0182E08083E091A901F091AA011082B7
:100C5000E091AB01F091AC018FEC80831092B50173
:100C6000E091B101F091B20186E08083E091AF01A3
:100C7000F091B001808180618083E091AF01F091BB
:100C8000B001808188608083E091AF01F091B00174
:100C9000808180688083E091AF01F091B001808114
:100CA0008F7D808389E00E94870088E00E94870012
:100CB00083E08093000182E00E945F0380E00E9455
:100CC000FC0381E391E00E945A0281E00E94FC0350
:100CD00083E491E00E945A0260E089E00E94B3013F
:100CE00060ED77E080E090E00E94240260E088E020
:100CF0000E94B30160ED77E080E090E00E94240262
:100D00000E945703C0E0D0E08091000120E4829F60
:100D1000C001112480937C0080917A0080648093CC
:100D20007A0080917A0086FDFCCF809178006091F6
:100D30007900762F682F072E000C880B990B0E94E4
:100D4000A20820E030E849E854E40E94570920E076
:100D500030E040E256E40E94FF07609399017093EF
:100D60009A0180939B0190939C0180E591E00E9401
:100D70005A026091990170919A0180919B01909122
:100D80009C0142E00E9410040E94AB0264E670E005
:100D900080E090E00E9424020E945703C0909901D5
:100DA000D0909A01E0909B01F0909C0120E030E00F
:100DB00040EF51E4C701B6010E94520987FD40C0CF
:100DC00080E00E94FC0380E591E00E945A0260915D
:100DD000990170919A0180919B0190919C0142E050
:100DE0000E9410040E94AB0281E00E94FC0388E58F
:100DF00091E00E945A0260E089E00E94B30164E63B
:100E000070E080E090E00E94240261E088E00E94AF
:100E1000B30164E670E080E090E00E94240264E6A2
:100E200070E080E090E00E942402209709F46CCFEB
:100E30000E941001882309F467CF0E94000064CF4C
:100E400020E030E040EA51E4C701B6010E94FA0711
:100E5000181654F420E030E040EC51E4C701B6012C
:100E60000E94FA0718163CF180E00E94FC0380E51E
:100E700091E00E945A026091990170919A018091CB
:100E80009B0190919C0142E00E9410040E94AB02E1
:100E900081E00E94FC038AE691E00E945A0261E030
:100EA00089E00E94B30164E670E080E090E00E9477
:100EB000240260E0ABCF20E030E040EC51E4C70119
:100EC000B6010E94FA07882359F020E030E040EF95
:100ED00051E4C701B6010E94FA0718160CF49FCF1F
:100EE00080E00E94FC0380E591E00E945A0260913C
:100EF000990170919A0180919B0190919C0142E02F
:100F00000E9410040E94AB0281E00E94FC038EE765
:100F100091E00E945A0260E0C3CF5058BB27AA2735
:100F20000E94A5070C9418090E940A0938F00E9433
:100F3000110920F039F49F3F19F426F40C940709A5
:100F40000EF4E095E7FB0C940109E92F0E942909B2
:100F500058F3BA17620773078407950720F079F4EE
:100F6000A6F50C944B090EF4E0950B2EBA2FA02D8C
:100F70000B01B90190010C01CA01A0011124FF2746
:100F8000591B99F0593F50F4503E68F11A16F04041
:100F9000A22F232F342F4427585FF3CF4695379540
:100FA0002795A795F0405395C9F77EF41F16BA0B05
:100FB000620B730B840BBAF09150A1F0FF0FBB1FB3
:100FC000661F771F881FC2F70EC0BA0F621F731FFC
:100FD000841F48F4879577956795B795F7959E3F59
:100FE00008F0B0CF9395880F08F09927EE0F9795EA
:100FF000879508950E94DD0808F481E008950E9415
:1010000013080C9418090E94110958F00E940A094B
:1010100040F029F45F3F29F00C94010951110C9420
:101020004C090C9407090E94290968F39923B1F32C
:10103000552391F3951B550BBB27AA2762177307FE
:10104000840738F09F5F5F4F220F331F441FAA1F92
:10105000A9F335D00E2E3AF0E0E832D0915050404E
:10106000E695001CCAF72BD0FE2F29D0660F771FFC
:10107000881FBB1F261737074807AB07B0E809F0E2
:10108000BB0B802DBF01FF2793585F4F3AF09E3F67
:10109000510578F00C9401090C944C095F3FE4F37E
:1010A000983ED4F3869577956795B795F7959F5FAA
:1010B000C9F7880F911D9695879597F90895E1E0F6
:1010C000660F771F881FBB1F621773078407BA0755
:1010D00020F0621B730B840BBA0BEE1F88F7E095B0
:1010E00008950E94310988F09F5798F0B92F9927E9
:1010F000B751B0F0E1F0660F771F881F991F1AF003
:10110000BA95C9F714C0B13091F00E944B09B1E013
:1011100008950C944B09672F782F8827B85F39F012
:10112000B93FCCF3869577956795B395D9F73EF49B
:1011300090958095709561957F4F8F4F9F4F089543
:10114000E89409C097FB3EF4909580957095619561
:101150007F4F8F4F9F4F9923A9F0F92F96E9BB2717
:101160009395F695879577956795B795F111F8CF93
:10117000FAF4BB0F11F460FF1BC06F5F7F4F8F4FFE
:101180009F4F16C0882311F096E911C0772321F0F4
:101190009EE8872F762F05C0662371F096E8862F8C
:1011A00070E060E02AF09A95660F771F881FDAF7E3
:1011B000880F9695879597F90895990F0008550F10
:1011C000AA0BE0E8FEEF16161706E807F907C0F0CD
:1011D00012161306E407F50798F0621B730B840BD5
:1011E000950B39F40A2661F0232B242B252B21F4AF
:1011F00008950A2609F4A140A6958FEF811D811D4F
:10120000089597F99F6780E870E060E008959FEF88
:1012100080EC089500240A9416161706180609068D
:10122000089500240A94121613061406050608955C
:10123000092E0394000C11F4882352F0BB0F40F4E4
:10124000BF2B11F460FF04C06F5F7F4F8F4F9F4F24
:10125000089557FD9058440F551F59F05F3F71F0A6
:101260004795880F97FB991F61F09F3F79F087950D
:101270000895121613061406551FF2CF4695F1DF96
:1012800008C0161617061806991FF1CF8695710526
:10129000610508940895E894BB2766277727CB015A
:1012A00097F908950E94DD0808F48FEF08950E94D1
:1012B0006A090C9418090E940A0938F00E94110961
:1012C00020F0952311F00C9401090C9407091124C6
:1012D0000C944C090E94290970F3959FC1F3950F56
:1012E00050E0551F629FF001729FBB27F00DB11DAA
:1012F000639FAA27F00DB11DAA1F649F6627B00D3A
:10130000A11D661F829F2227B00DA11D621F739F22
:10131000B00DA11D621F839FA00D611D221F749F30
:101320003327A00D611D231F849F600D211D822F77
:10133000762F6A2F11249F5750409AF0F1F088239E
:101340004AF0EE0FFF1FBB1F661F771F881F9150CB
:101350005040A9F79E3F510580F00C9401090C9470
:101360004C095F3FE4F3983ED4F3869577956795F3
:10137000B795F795E7959F5FC1F7FE2B880F911DF5
:101380009695879597F908950E94DD08880B990B2B
:101390000895A1E21A2EAA1BBB1BFD010DC0AA1FB6
:1013A000BB1FEE1FFF1FA217B307E407F50720F0CE
:1013B000A21BB30BE40BF50B661F771F881F991F49
:1013C0001A9469F760957095809590959B01AC0192
:1013D000BD01CF010895EE0FFF1F0590F491E02DA0
:1013E0000994F894FFCF01000000004601A600D345
:1013F0000093010401E200F600000000000A04A6C8
:1014000000570256022A43000D0A006E616E006901
:101410006E66006F76660020202054656D706572E0
:1014200061747572652020200020202053656E7342
:101430006F72202020002054454D503A200020207B
:1014400020486F74202020202020202020202000F1
:10145000202020436F6F6C2020202020202020207F
:10146000202020002020204E65757472616C2020A1
:06147000202020200000F6
:107E0000112484B714BE81FFF0D085E080938100F7
:107E100082E08093C00088E18093C10086E0809377
:107E2000C20080E18093C4008EE0C9D0259A86E02C
:107E300020E33CEF91E0309385002093840096BBD3
:107E4000B09BFECF1D9AA8958150A9F7CC24DD24C4
:107E500088248394B5E0AB2EA1E19A2EF3E0BF2EE7
:107E6000A2D0813461F49FD0082FAFD0023811F036
:107E7000013811F484E001C083E08DD089C08234E0
:107E800011F484E103C0853419F485E0A6D080C0E4
:107E9000853579F488D0E82EFF2485D0082F10E0AE
:107EA000102F00270E291F29000F111F8ED06801E7
:107EB0006FC0863521F484E090D080E0DECF843638
:107EC00009F040C070D06FD0082F6DD080E0C81688
:107ED00080E7D80618F4F601B7BEE895C0E0D1E017
:107EE00062D089930C17E1F7F0E0CF16F0E7DF06D8
:107EF00018F0F601B7BEE89568D007B600FCFDCFD4
:107F0000A601A0E0B1E02C9130E011968C91119780
:107F100090E0982F8827822B932B1296FA010C0160
:107F200087BEE89511244E5F5F4FF1E0A038BF0790
:107F300051F7F601A7BEE89507B600FCFDCF97BE46
:107F4000E89526C08437B1F42ED02DD0F82E2BD052
:107F50003CD0F601EF2C8F010F5F1F4F84911BD097
:107F6000EA94F801C1F70894C11CD11CFA94CF0C13
:107F7000D11C0EC0853739F428D08EE10CD085E9AC
:107F80000AD08FE07ACF813511F488E018D01DD067
:107F900080E101D065CF982F8091C00085FFFCCF94
:107FA0009093C60008958091C00087FFFCCF809118
:107FB000C00084FD01C0A8958091C6000895E0E648
:107FC000F0E098E1908380830895EDDF803219F02E
:107FD00088E0F5DFFFCF84E1DECF1F93182FE3DFCA
:107FE0001150E9F7F2DF1F91089580E0E8DFEE27F6
:047FF000FF270994CA
:027FFE00040479
:00000001FF
